{
  "contractName": "Voting",
  "abi": [
    {
      "inputs": [],
      "stateMutability": "nonpayable",
      "type": "constructor"
    },
    {
      "inputs": [],
      "name": "candidateCount",
      "outputs": [
        {
          "internalType": "uint256",
          "name": "",
          "type": "uint256"
        }
      ],
      "stateMutability": "view",
      "type": "function",
      "constant": true
    },
    {
      "inputs": [
        {
          "internalType": "uint256",
          "name": "",
          "type": "uint256"
        }
      ],
      "name": "candidates",
      "outputs": [
        {
          "internalType": "uint256",
          "name": "id",
          "type": "uint256"
        },
        {
          "internalType": "string",
          "name": "name",
          "type": "string"
        },
        {
          "internalType": "uint256",
          "name": "voteCount",
          "type": "uint256"
        }
      ],
      "stateMutability": "view",
      "type": "function",
      "constant": true
    },
    {
      "inputs": [],
      "name": "electionCount",
      "outputs": [
        {
          "internalType": "uint256",
          "name": "",
          "type": "uint256"
        }
      ],
      "stateMutability": "view",
      "type": "function",
      "constant": true
    },
    {
      "inputs": [
        {
          "internalType": "uint256",
          "name": "",
          "type": "uint256"
        }
      ],
      "name": "elections",
      "outputs": [
        {
          "internalType": "uint256",
          "name": "id",
          "type": "uint256"
        },
        {
          "internalType": "string",
          "name": "name",
          "type": "string"
        },
        {
          "internalType": "bool",
          "name": "isActive",
          "type": "bool"
        }
      ],
      "stateMutability": "view",
      "type": "function",
      "constant": true
    },
    {
      "inputs": [
        {
          "internalType": "address",
          "name": "",
          "type": "address"
        },
        {
          "internalType": "uint256",
          "name": "",
          "type": "uint256"
        }
      ],
      "name": "hasVoted",
      "outputs": [
        {
          "internalType": "bool",
          "name": "",
          "type": "bool"
        }
      ],
      "stateMutability": "view",
      "type": "function",
      "constant": true
    },
    {
      "inputs": [],
      "name": "owner",
      "outputs": [
        {
          "internalType": "address",
          "name": "",
          "type": "address"
        }
      ],
      "stateMutability": "view",
      "type": "function",
      "constant": true
    },
    {
      "inputs": [
        {
          "internalType": "string",
          "name": "_name",
          "type": "string"
        }
      ],
      "name": "createElection",
      "outputs": [],
      "stateMutability": "nonpayable",
      "type": "function"
    },
    {
      "inputs": [
        {
          "internalType": "uint256",
          "name": "_electionId",
          "type": "uint256"
        },
        {
          "internalType": "string",
          "name": "_name",
          "type": "string"
        }
      ],
      "name": "addCandidate",
      "outputs": [],
      "stateMutability": "nonpayable",
      "type": "function"
    },
    {
      "inputs": [
        {
          "internalType": "uint256",
          "name": "_electionId",
          "type": "uint256"
        },
        {
          "internalType": "uint256",
          "name": "_candidateId",
          "type": "uint256"
        }
      ],
      "name": "vote",
      "outputs": [],
      "stateMutability": "nonpayable",
      "type": "function"
    },
    {
      "inputs": [
        {
          "internalType": "uint256",
          "name": "_electionId",
          "type": "uint256"
        }
      ],
      "name": "getCandidates",
      "outputs": [
        {
          "internalType": "uint256[]",
          "name": "",
          "type": "uint256[]"
        }
      ],
      "stateMutability": "view",
      "type": "function",
      "constant": true
    },
    {
      "inputs": [
        {
          "internalType": "uint256",
          "name": "_id",
          "type": "uint256"
        }
      ],
      "name": "getElection",
      "outputs": [
        {
          "internalType": "string",
          "name": "name",
          "type": "string"
        },
        {
          "internalType": "bool",
          "name": "isActive",
          "type": "bool"
        }
      ],
      "stateMutability": "view",
      "type": "function",
      "constant": true
    }
  ],
  "bytecode": "0x6080604052348015600f57600080fd5b50336000806101000a81548173ffffffffffffffffffffffffffffffffffffffff021916908373ffffffffffffffffffffffffffffffffffffffff1602179055506114cd8061005f6000396000f3fe608060405234801561001057600080fd5b50600436106100a95760003560e01c80635e6fef01116100715780635e6fef01146101785780638da5cb5b146101aa578063997d2830146101c85780639d710777146101e6578063a9a981a314610217578063b384abef14610235576100a9565b806315cf4a5f146100ae5780631750a3d0146100ca5780633477ee2e146100e65780633e39a7a5146101185780634254582514610148575b600080fd5b6100c860048036038101906100c39190610b17565b610251565b005b6100e460048036038101906100df9190610b96565b610370565b005b61010060048036038101906100fb9190610bf2565b61051f565b60405161010f93929190610cad565b60405180910390f35b610132600480360381019061012d9190610bf2565b6105d1565b60405161013f9190610da9565b60405180910390f35b610162600480360381019061015d9190610e29565b61063f565b60405161016f9190610e84565b60405180910390f35b610192600480360381019061018d9190610bf2565b61066e565b6040516101a193929190610e9f565b60405180910390f35b6101b261072d565b6040516101bf9190610eec565b60405180910390f35b6101d0610751565b6040516101dd9190610f07565b60405180910390f35b61020060048036038101906101fb9190610bf2565b610757565b60405161020e929190610f22565b60405180910390f35b61021f61081d565b60405161022c9190610f07565b60405180910390f35b61024f600480360381019061024a9190610f52565b610823565b005b60008054906101000a900473ffffffffffffffffffffffffffffffffffffffff1673ffffffffffffffffffffffffffffffffffffffff163373ffffffffffffffffffffffffffffffffffffffff16146102df576040517f08c379a00000000000000000000000000000000000000000000000000000000081526004016102d690610fde565b60405180910390fd5b600160008154809291906102f29061102d565b91905055506001546003600060015481526020019081526020016000206000018190555080600360006001548152602001908152602001600020600101908161033b9190611281565b50600160036000600154815260200190815260200160002060020160006101000a81548160ff02191690831515021790555050565b60008054906101000a900473ffffffffffffffffffffffffffffffffffffffff1673ffffffffffffffffffffffffffffffffffffffff163373ffffffffffffffffffffffffffffffffffffffff16146103fe576040517f08c379a00000000000000000000000000000000000000000000000000000000081526004016103f590610fde565b60405180910390fd5b6003600083815260200190815260200160002060020160009054906101000a900460ff16610461576040517f08c379a00000000000000000000000000000000000000000000000000000000081526004016104589061139f565b60405180910390fd5b600260008154809291906104749061102d565b9190505550600254600460006002548152602001908152602001600020600001819055508060046000600254815260200190815260200160002060010190816104bd9190611281565b506000600460006002548152602001908152602001600020600201819055506003600083815260200190815260200160002060030160025490806001815401808255809150506001900390600052602060002001600090919091909150555050565b6004602052806000526040600020600091509050806000015490806001018054610548906110a4565b80601f0160208091040260200160405190810160405280929190818152602001828054610574906110a4565b80156105c15780601f10610596576101008083540402835291602001916105c1565b820191906000526020600020905b8154815290600101906020018083116105a457829003601f168201915b5050505050908060020154905083565b60606003600083815260200190815260200160002060030180548060200260200160405190810160405280929190818152602001828054801561063357602002820191906000526020600020905b81548152602001906001019080831161061f575b50505050509050919050565b60056020528160005260406000206020528060005260406000206000915091509054906101000a900460ff1681565b6003602052806000526040600020600091509050806000015490806001018054610697906110a4565b80601f01602080910402602001604051908101604052809291908181526020018280546106c3906110a4565b80156107105780601f106106e557610100808354040283529160200191610710565b820191906000526020600020905b8154815290600101906020018083116106f357829003601f168201915b5050505050908060020160009054906101000a900460ff16905083565b60008054906101000a900473ffffffffffffffffffffffffffffffffffffffff1681565b60015481565b6060600080600360008581526020019081526020016000209050806001018160020160009054906101000a900460ff16818054610793906110a4565b80601f01602080910402602001604051908101604052809291908181526020018280546107bf906110a4565b801561080c5780601f106107e15761010080835404028352916020019161080c565b820191906000526020600020905b8154815290600101906020018083116107ef57829003601f168201915b505050505091509250925050915091565b60025481565b600560003373ffffffffffffffffffffffffffffffffffffffff1673ffffffffffffffffffffffffffffffffffffffff168152602001908152602001600020600083815260200190815260200160002060009054906101000a900460ff16156108c1576040517f08c379a00000000000000000000000000000000000000000000000000000000081526004016108b89061140b565b60405180910390fd5b6003600083815260200190815260200160002060020160009054906101000a900460ff16610924576040517f08c379a000000000000000000000000000000000000000000000000000000000815260040161091b90611477565b60405180910390fd5b6001600560003373ffffffffffffffffffffffffffffffffffffffff1673ffffffffffffffffffffffffffffffffffffffff168152602001908152602001600020600084815260200190815260200160002060006101000a81548160ff0219169083151502179055506004600082815260200190815260200160002060020160008154809291906109b49061102d565b91905055505050565b6000604051905090565b600080fd5b600080fd5b600080fd5b600080fd5b6000601f19601f8301169050919050565b7f4e487b7100000000000000000000000000000000000000000000000000000000600052604160045260246000fd5b610a24826109db565b810181811067ffffffffffffffff82111715610a4357610a426109ec565b5b80604052505050565b6000610a566109bd565b9050610a628282610a1b565b919050565b600067ffffffffffffffff821115610a8257610a816109ec565b5b610a8b826109db565b9050602081019050919050565b82818337600083830152505050565b6000610aba610ab584610a67565b610a4c565b905082815260208101848484011115610ad657610ad56109d6565b5b610ae1848285610a98565b509392505050565b600082601f830112610afe57610afd6109d1565b5b8135610b0e848260208601610aa7565b91505092915050565b600060208284031215610b2d57610b2c6109c7565b5b600082013567ffffffffffffffff811115610b4b57610b4a6109cc565b5b610b5784828501610ae9565b91505092915050565b6000819050919050565b610b7381610b60565b8114610b7e57600080fd5b50565b600081359050610b9081610b6a565b92915050565b60008060408385031215610bad57610bac6109c7565b5b6000610bbb85828601610b81565b925050602083013567ffffffffffffffff811115610bdc57610bdb6109cc565b5b610be885828601610ae9565b9150509250929050565b600060208284031215610c0857610c076109c7565b5b6000610c1684828501610b81565b91505092915050565b610c2881610b60565b82525050565b600081519050919050565b600082825260208201905092915050565b60005b83811015610c68578082015181840152602081019050610c4d565b60008484015250505050565b6000610c7f82610c2e565b610c898185610c39565b9350610c99818560208601610c4a565b610ca2816109db565b840191505092915050565b6000606082019050610cc26000830186610c1f565b8181036020830152610cd48185610c74565b9050610ce36040830184610c1f565b949350505050565b600081519050919050565b600082825260208201905092915050565b6000819050602082019050919050565b610d2081610b60565b82525050565b6000610d328383610d17565b60208301905092915050565b6000602082019050919050565b6000610d5682610ceb565b610d608185610cf6565b9350610d6b83610d07565b8060005b83811015610d9c578151610d838882610d26565b9750610d8e83610d3e565b925050600181019050610d6f565b5085935050505092915050565b60006020820190508181036000830152610dc38184610d4b565b905092915050565b600073ffffffffffffffffffffffffffffffffffffffff82169050919050565b6000610df682610dcb565b9050919050565b610e0681610deb565b8114610e1157600080fd5b50565b600081359050610e2381610dfd565b92915050565b60008060408385031215610e4057610e3f6109c7565b5b6000610e4e85828601610e14565b9250506020610e5f85828601610b81565b9150509250929050565b60008115159050919050565b610e7e81610e69565b82525050565b6000602082019050610e996000830184610e75565b92915050565b6000606082019050610eb46000830186610c1f565b8181036020830152610ec68185610c74565b9050610ed56040830184610e75565b949350505050565b610ee681610deb565b82525050565b6000602082019050610f016000830184610edd565b92915050565b6000602082019050610f1c6000830184610c1f565b92915050565b60006040820190508181036000830152610f3c8185610c74565b9050610f4b6020830184610e75565b9392505050565b60008060408385031215610f6957610f686109c7565b5b6000610f7785828601610b81565b9250506020610f8885828601610b81565b9150509250929050565b7f4f6e6c79206f776e65722063616e20646f207468697300000000000000000000600082015250565b6000610fc8601683610c39565b9150610fd382610f92565b602082019050919050565b60006020820190508181036000830152610ff781610fbb565b9050919050565b7f4e487b7100000000000000000000000000000000000000000000000000000000600052601160045260246000fd5b600061103882610b60565b91507fffffffffffffffffffffffffffffffffffffffffffffffffffffffffffffffff820361106a57611069610ffe565b5b600182019050919050565b7f4e487b7100000000000000000000000000000000000000000000000000000000600052602260045260246000fd5b600060028204905060018216806110bc57607f821691505b6020821081036110cf576110ce611075565b5b50919050565b60008190508160005260206000209050919050565b60006020601f8301049050919050565b600082821b905092915050565b6000600883026111377fffffffffffffffffffffffffffffffffffffffffffffffffffffffffffffffff826110fa565b61114186836110fa565b95508019841693508086168417925050509392505050565b6000819050919050565b600061117e61117961117484610b60565b611159565b610b60565b9050919050565b6000819050919050565b61119883611163565b6111ac6111a482611185565b848454611107565b825550505050565b600090565b6111c16111b4565b6111cc81848461118f565b505050565b5b818110156111f0576111e56000826111b9565b6001810190506111d2565b5050565b601f82111561123557611206816110d5565b61120f846110ea565b8101602085101561121e578190505b61123261122a856110ea565b8301826111d1565b50505b505050565b600082821c905092915050565b60006112586000198460080261123a565b1980831691505092915050565b60006112718383611247565b9150826002028217905092915050565b61128a82610c2e565b67ffffffffffffffff8111156112a3576112a26109ec565b5b6112ad82546110a4565b6112b88282856111f4565b600060209050601f8311600181146112eb57600084156112d9578287015190505b6112e38582611265565b86555061134b565b601f1984166112f9866110d5565b60005b82811015611321578489015182556001820191506020850194506020810190506112fc565b8683101561133e578489015161133a601f891682611247565b8355505b6001600288020188555050505b505050505050565b7f456c656374696f6e206e6f742061637469766500000000000000000000000000600082015250565b6000611389601383610c39565b915061139482611353565b602082019050919050565b600060208201905081810360008301526113b88161137c565b9050919050565b7f416c726561647920766f74656420696e207468697320656c656374696f6e0000600082015250565b60006113f5601e83610c39565b9150611400826113bf565b602082019050919050565b60006020820190508181036000830152611424816113e8565b9050919050565b7f456c656374696f6e206973206e6f742061637469766500000000000000000000600082015250565b6000611461601683610c39565b915061146c8261142b565b602082019050919050565b6000602082019050818103600083015261149081611454565b905091905056fea26469706673582212209aa900655201db4a07992e058543eb4e3f6b0ebdad9cd7209fa4b0cf7b64bb5664736f6c634300081d0033",
  "immutableReferences": {},
  "source": "// SPDX-License-Identifier: MIT\npragma solidity ^0.8.0;\n\ncontract Voting {\n    struct Candidate {\n        uint id;\n        string name;\n        uint voteCount;\n    }\n    \n    struct Election {\n        uint id;\n        string name;\n        bool isActive;\n        uint[] candidateIds;\n    }\n    \n    address public owner;\n    uint public electionCount;\n    uint public candidateCount;\n    mapping(uint => Election) public elections;\n    mapping(uint => Candidate) public candidates;\n    mapping(address => mapping(uint => bool)) public hasVoted;\n    \n    constructor() {\n        owner = msg.sender;\n    }\n    \n    modifier onlyOwner() {\n        require(msg.sender == owner, \"Only owner can do this\");\n        _;\n    }\n    \n    function createElection(string memory _name) public onlyOwner {\n        electionCount++;\n        \n        // Create a new election with empty candidateIds array\n        elections[electionCount].id = electionCount;\n        elections[electionCount].name = _name;\n        elections[electionCount].isActive = true;\n        // The candidateIds array is automatically initialized as empty\n    }\n    \n    function addCandidate(uint _electionId, string memory _name) public onlyOwner {\n        require(elections[_electionId].isActive, \"Election not active\");\n        \n        candidateCount++;\n        candidates[candidateCount].id = candidateCount;\n        candidates[candidateCount].name = _name;\n        candidates[candidateCount].voteCount = 0;\n        \n        elections[_electionId].candidateIds.push(candidateCount);\n    }\n    \n    function vote(uint _electionId, uint _candidateId) public {\n        require(!hasVoted[msg.sender][_electionId], \"Already voted in this election\");\n        require(elections[_electionId].isActive, \"Election is not active\");\n        \n        hasVoted[msg.sender][_electionId] = true;\n        candidates[_candidateId].voteCount++;\n    }\n    \n    function getCandidates(uint _electionId) public view returns (uint[] memory) {\n        return elections[_electionId].candidateIds;\n    }\n    \n    function getElection(uint _id) public view returns (string memory name, bool isActive) {\n        Election storage e = elections[_id];\n        return (e.name, e.isActive);\n    }\n}",
  "sourcePath": "C:\\Users\\nzabe\\OneDrive\\Desktop\\academics\\Y3\\NE_STARTERS\\Restful\\2025-practical-boilerplate\\contracts\\contracts\\Voting.sol",
  "compiler": {
    "name": "solc",
    "version": "0.8.29+commit.ab55807c.Emscripten.clang"
  },
  "schemaVersion": "3.4.16",
  "updatedAt": "2025-04-21T13:03:17.762Z",
  "networkType": "ethereum",
  "devdoc": {
    "kind": "dev",
    "methods": {},
    "version": 1
  },
  "userdoc": {
    "kind": "user",
    "methods": {},
    "version": 1
  }
}